{
  "contractName": "VB_Marketplace",
  "abi": [
    {
      "constant": true,
      "inputs": [
        {
          "name": "",
          "type": "uint256"
        },
        {
          "name": "",
          "type": "uint256"
        }
      ],
      "name": "offers",
      "outputs": [
        {
          "name": "value",
          "type": "uint256"
        },
        {
          "name": "refund",
          "type": "uint256"
        },
        {
          "name": "commission",
          "type": "uint256"
        },
        {
          "name": "currency",
          "type": "address"
        },
        {
          "name": "buyer",
          "type": "address"
        },
        {
          "name": "affiliate",
          "type": "address"
        },
        {
          "name": "arbitrator",
          "type": "address"
        },
        {
          "name": "finalizes",
          "type": "uint256"
        },
        {
          "name": "status",
          "type": "uint8"
        },
        {
          "name": "seller",
          "type": "address"
        },
        {
          "name": "verifier",
          "type": "address"
        }
      ],
      "payable": false,
      "stateMutability": "view",
      "type": "function"
    },
    {
      "constant": true,
      "inputs": [],
      "name": "tokenAddr",
      "outputs": [
        {
          "name": "",
          "type": "address"
        }
      ],
      "payable": false,
      "stateMutability": "view",
      "type": "function"
    },
    {
      "constant": false,
      "inputs": [],
      "name": "renounceOwnership",
      "outputs": [],
      "payable": false,
      "stateMutability": "nonpayable",
      "type": "function"
    },
    {
      "constant": true,
      "inputs": [],
      "name": "owner",
      "outputs": [
        {
          "name": "",
          "type": "address"
        }
      ],
      "payable": false,
      "stateMutability": "view",
      "type": "function"
    },
    {
      "constant": true,
      "inputs": [
        {
          "name": "",
          "type": "address"
        }
      ],
      "name": "allowedAffiliates",
      "outputs": [
        {
          "name": "",
          "type": "bool"
        }
      ],
      "payable": false,
      "stateMutability": "view",
      "type": "function"
    },
    {
      "constant": false,
      "inputs": [
        {
          "name": "_newOwner",
          "type": "address"
        }
      ],
      "name": "transferOwnership",
      "outputs": [],
      "payable": false,
      "stateMutability": "nonpayable",
      "type": "function"
    },
    {
      "inputs": [
        {
          "name": "_tokenAddr",
          "type": "address"
        },
        {
          "name": "_chainId",
          "type": "uint256"
        }
      ],
      "payable": false,
      "stateMutability": "nonpayable",
      "type": "constructor"
    },
    {
      "anonymous": false,
      "inputs": [
        {
          "indexed": true,
          "name": "party",
          "type": "address"
        },
        {
          "indexed": false,
          "name": "ipfsHash",
          "type": "bytes32"
        }
      ],
      "name": "MarketplaceData",
      "type": "event"
    },
    {
      "anonymous": false,
      "inputs": [
        {
          "indexed": true,
          "name": "party",
          "type": "address"
        },
        {
          "indexed": false,
          "name": "ipfsHash",
          "type": "bytes32"
        }
      ],
      "name": "AffiliateAdded",
      "type": "event"
    },
    {
      "anonymous": false,
      "inputs": [
        {
          "indexed": true,
          "name": "party",
          "type": "address"
        },
        {
          "indexed": false,
          "name": "ipfsHash",
          "type": "bytes32"
        }
      ],
      "name": "AffiliateRemoved",
      "type": "event"
    },
    {
      "anonymous": false,
      "inputs": [
        {
          "indexed": true,
          "name": "party",
          "type": "address"
        },
        {
          "indexed": true,
          "name": "listingID",
          "type": "uint256"
        },
        {
          "indexed": false,
          "name": "ipfsHash",
          "type": "bytes32"
        }
      ],
      "name": "ListingCreated",
      "type": "event"
    },
    {
      "anonymous": false,
      "inputs": [
        {
          "indexed": true,
          "name": "party",
          "type": "address"
        },
        {
          "indexed": true,
          "name": "listingID",
          "type": "uint256"
        },
        {
          "indexed": false,
          "name": "ipfsHash",
          "type": "bytes32"
        }
      ],
      "name": "ListingUpdated",
      "type": "event"
    },
    {
      "anonymous": false,
      "inputs": [
        {
          "indexed": true,
          "name": "party",
          "type": "address"
        },
        {
          "indexed": true,
          "name": "listingID",
          "type": "uint256"
        },
        {
          "indexed": false,
          "name": "ipfsHash",
          "type": "bytes32"
        }
      ],
      "name": "ListingWithdrawn",
      "type": "event"
    },
    {
      "anonymous": false,
      "inputs": [
        {
          "indexed": true,
          "name": "party",
          "type": "address"
        },
        {
          "indexed": true,
          "name": "listingID",
          "type": "uint256"
        },
        {
          "indexed": false,
          "name": "ipfsHash",
          "type": "bytes32"
        }
      ],
      "name": "ListingArbitrated",
      "type": "event"
    },
    {
      "anonymous": false,
      "inputs": [
        {
          "indexed": true,
          "name": "party",
          "type": "address"
        },
        {
          "indexed": true,
          "name": "listingID",
          "type": "uint256"
        },
        {
          "indexed": false,
          "name": "ipfsHash",
          "type": "bytes32"
        }
      ],
      "name": "ListingData",
      "type": "event"
    },
    {
      "anonymous": false,
      "inputs": [
        {
          "indexed": true,
          "name": "party",
          "type": "address"
        },
        {
          "indexed": true,
          "name": "listingID",
          "type": "uint256"
        },
        {
          "indexed": true,
          "name": "offerID",
          "type": "uint256"
        },
        {
          "indexed": false,
          "name": "ipfsHash",
          "type": "bytes32"
        },
        {
          "indexed": false,
          "name": "listingIpfsHash",
          "type": "bytes32"
        }
      ],
      "name": "OfferCreated",
      "type": "event"
    },
    {
      "anonymous": false,
      "inputs": [
        {
          "indexed": true,
          "name": "party",
          "type": "address"
        },
        {
          "indexed": true,
          "name": "listingID",
          "type": "uint256"
        },
        {
          "indexed": true,
          "name": "offerID",
          "type": "uint256"
        },
        {
          "indexed": false,
          "name": "ipfsHash",
          "type": "bytes32"
        }
      ],
      "name": "OfferAccepted",
      "type": "event"
    },
    {
      "anonymous": false,
      "inputs": [
        {
          "indexed": true,
          "name": "party",
          "type": "address"
        },
        {
          "indexed": true,
          "name": "listingID",
          "type": "uint256"
        },
        {
          "indexed": true,
          "name": "offerID",
          "type": "uint256"
        },
        {
          "indexed": false,
          "name": "ipfsHash",
          "type": "bytes32"
        }
      ],
      "name": "OfferFinalized",
      "type": "event"
    },
    {
      "anonymous": false,
      "inputs": [
        {
          "indexed": true,
          "name": "party",
          "type": "address"
        },
        {
          "indexed": true,
          "name": "listingID",
          "type": "uint256"
        },
        {
          "indexed": true,
          "name": "offerID",
          "type": "uint256"
        },
        {
          "indexed": false,
          "name": "ipfsHash",
          "type": "bytes32"
        }
      ],
      "name": "OfferWithdrawn",
      "type": "event"
    },
    {
      "anonymous": false,
      "inputs": [
        {
          "indexed": true,
          "name": "party",
          "type": "address"
        },
        {
          "indexed": true,
          "name": "listingID",
          "type": "uint256"
        },
        {
          "indexed": true,
          "name": "offerID",
          "type": "uint256"
        },
        {
          "indexed": false,
          "name": "ipfsHash",
          "type": "bytes32"
        }
      ],
      "name": "OfferFundsAdded",
      "type": "event"
    },
    {
      "anonymous": false,
      "inputs": [
        {
          "indexed": true,
          "name": "party",
          "type": "address"
        },
        {
          "indexed": true,
          "name": "listingID",
          "type": "uint256"
        },
        {
          "indexed": true,
          "name": "offerID",
          "type": "uint256"
        },
        {
          "indexed": false,
          "name": "ipfsHash",
          "type": "bytes32"
        }
      ],
      "name": "OfferDisputed",
      "type": "event"
    },
    {
      "anonymous": false,
      "inputs": [
        {
          "indexed": true,
          "name": "party",
          "type": "address"
        },
        {
          "indexed": true,
          "name": "listingID",
          "type": "uint256"
        },
        {
          "indexed": true,
          "name": "offerID",
          "type": "uint256"
        },
        {
          "indexed": false,
          "name": "ipfsHash",
          "type": "bytes32"
        },
        {
          "indexed": false,
          "name": "ruling",
          "type": "uint256"
        }
      ],
      "name": "OfferRuling",
      "type": "event"
    },
    {
      "anonymous": false,
      "inputs": [
        {
          "indexed": true,
          "name": "party",
          "type": "address"
        },
        {
          "indexed": true,
          "name": "listingID",
          "type": "uint256"
        },
        {
          "indexed": true,
          "name": "offerID",
          "type": "uint256"
        },
        {
          "indexed": false,
          "name": "ipfsHash",
          "type": "bytes32"
        }
      ],
      "name": "OfferData",
      "type": "event"
    },
    {
      "anonymous": false,
      "inputs": [
        {
          "indexed": true,
          "name": "previousOwner",
          "type": "address"
        }
      ],
      "name": "OwnershipRenounced",
      "type": "event"
    },
    {
      "anonymous": false,
      "inputs": [
        {
          "indexed": true,
          "name": "previousOwner",
          "type": "address"
        },
        {
          "indexed": true,
          "name": "newOwner",
          "type": "address"
        }
      ],
      "name": "OwnershipTransferred",
      "type": "event"
    },
    {
      "constant": true,
      "inputs": [
        {
          "name": "listingID",
          "type": "uint256"
        }
      ],
      "name": "totalOffers",
      "outputs": [
        {
          "name": "",
          "type": "uint256"
        }
      ],
      "payable": false,
      "stateMutability": "view",
      "type": "function"
    },
    {
      "constant": false,
      "inputs": [
        {
          "name": "_buyer",
          "type": "address"
        },
        {
          "name": "listingID",
          "type": "uint256"
        },
        {
          "name": "_listingIpfsHash",
          "type": "bytes32"
        },
        {
          "name": "_ipfsHash",
          "type": "bytes32"
        },
        {
          "name": "_finalizes",
          "type": "uint256"
        },
        {
          "name": "_affiliate",
          "type": "address"
        },
        {
          "name": "_commission",
          "type": "uint256"
        },
        {
          "name": "_value",
          "type": "uint256"
        },
        {
          "name": "_currency",
          "type": "address"
        },
        {
          "name": "_arbitrator",
          "type": "address"
        },
        {
          "name": "_seller",
          "type": "address"
        },
        {
          "name": "_verifier",
          "type": "address"
        }
      ],
      "name": "_makeOffer",
      "outputs": [],
      "payable": true,
      "stateMutability": "payable",
      "type": "function"
    },
    {
      "constant": false,
      "inputs": [
        {
          "name": "listingID",
          "type": "uint256"
        },
        {
          "name": "_listingIpfsHash",
          "type": "bytes32"
        },
        {
          "name": "_ipfsHash",
          "type": "bytes32"
        },
        {
          "name": "_finalizes",
          "type": "uint256"
        },
        {
          "name": "_affiliate",
          "type": "address"
        },
        {
          "name": "_commission",
          "type": "uint256"
        },
        {
          "name": "_value",
          "type": "uint256"
        },
        {
          "name": "_currency",
          "type": "address"
        },
        {
          "name": "_arbitrator",
          "type": "address"
        },
        {
          "name": "_seller",
          "type": "address"
        },
        {
          "name": "_verifier",
          "type": "address"
        },
        {
          "name": "_withdrawOfferID",
          "type": "uint256"
        }
      ],
      "name": "makeOffer",
      "outputs": [],
      "payable": true,
      "stateMutability": "payable",
      "type": "function"
    },
    {
      "constant": false,
      "inputs": [
        {
          "name": "listingID",
          "type": "uint256"
        },
        {
          "name": "_listingIpfsHash",
          "type": "bytes32"
        },
        {
          "name": "_ipfsHash",
          "type": "bytes32"
        },
        {
          "name": "_finalizes",
          "type": "uint256"
        },
        {
          "name": "_affiliate",
          "type": "address"
        },
        {
          "name": "_commission",
          "type": "uint256"
        },
        {
          "name": "_value",
          "type": "uint256"
        },
        {
          "name": "_currency",
          "type": "address"
        },
        {
          "name": "_arbitrator",
          "type": "address"
        },
        {
          "name": "_seller",
          "type": "address"
        },
        {
          "name": "_verifier",
          "type": "address"
        }
      ],
      "name": "makeOffer",
      "outputs": [],
      "payable": true,
      "stateMutability": "payable",
      "type": "function"
    },
    {
      "constant": false,
      "inputs": [
        {
          "name": "_buyer",
          "type": "address"
        },
        {
          "name": "listingID",
          "type": "uint256"
        },
        {
          "name": "_listingIpfsHash",
          "type": "bytes32"
        },
        {
          "name": "_ipfsHash",
          "type": "bytes32"
        },
        {
          "name": "_finalizes",
          "type": "uint256"
        },
        {
          "name": "_affiliate",
          "type": "address"
        },
        {
          "name": "_commission",
          "type": "uint256"
        },
        {
          "name": "_value",
          "type": "uint256"
        },
        {
          "name": "_currency",
          "type": "address"
        },
        {
          "name": "_arbitrator",
          "type": "address"
        },
        {
          "name": "_seller",
          "type": "address"
        },
        {
          "name": "_verifier",
          "type": "address"
        }
      ],
      "name": "makeOfferWithSender",
      "outputs": [
        {
          "name": "",
          "type": "bool"
        }
      ],
      "payable": true,
      "stateMutability": "payable",
      "type": "function"
    },
    {
      "constant": false,
      "inputs": [
        {
          "name": "listingID",
          "type": "uint256"
        },
        {
          "name": "offerID",
          "type": "uint256"
        },
        {
          "name": "_ipfsHash",
          "type": "bytes32"
        },
        {
          "name": "_behalfFee",
          "type": "uint256"
        },
        {
          "name": "seller",
          "type": "address"
        },
        {
          "name": "v",
          "type": "uint8"
        },
        {
          "name": "r",
          "type": "bytes32"
        },
        {
          "name": "s",
          "type": "bytes32"
        }
      ],
      "name": "acceptOfferOnBehalf",
      "outputs": [],
      "payable": false,
      "stateMutability": "nonpayable",
      "type": "function"
    },
    {
      "constant": false,
      "inputs": [
        {
          "name": "listingID",
          "type": "uint256"
        },
        {
          "name": "offerID",
          "type": "uint256"
        },
        {
          "name": "_ipfsHash",
          "type": "bytes32"
        },
        {
          "name": "_behalfFee",
          "type": "uint256"
        },
        {
          "name": "seller",
          "type": "address"
        },
        {
          "name": "v",
          "type": "uint8"
        },
        {
          "name": "r",
          "type": "bytes32"
        },
        {
          "name": "s",
          "type": "bytes32"
        }
      ],
      "name": "verifyAcceptOfferOnBehalf",
      "outputs": [],
      "payable": false,
      "stateMutability": "nonpayable",
      "type": "function"
    },
    {
      "constant": false,
      "inputs": [
        {
          "name": "listingID",
          "type": "uint256"
        },
        {
          "name": "offerID",
          "type": "uint256"
        },
        {
          "name": "_ipfsHash",
          "type": "bytes32"
        }
      ],
      "name": "acceptOffer",
      "outputs": [],
      "payable": false,
      "stateMutability": "nonpayable",
      "type": "function"
    },
    {
      "constant": false,
      "inputs": [
        {
          "name": "listingID",
          "type": "uint256"
        },
        {
          "name": "offerID",
          "type": "uint256"
        },
        {
          "name": "_ipfsHash",
          "type": "bytes32"
        }
      ],
      "name": "withdrawOffer",
      "outputs": [],
      "payable": false,
      "stateMutability": "nonpayable",
      "type": "function"
    },
    {
      "constant": false,
      "inputs": [
        {
          "name": "listingID",
          "type": "uint256"
        },
        {
          "name": "offerID",
          "type": "uint256"
        },
        {
          "name": "_ipfsHash",
          "type": "bytes32"
        },
        {
          "name": "_value",
          "type": "uint256"
        }
      ],
      "name": "addFunds",
      "outputs": [],
      "payable": true,
      "stateMutability": "payable",
      "type": "function"
    },
    {
      "constant": false,
      "inputs": [
        {
          "name": "listingID",
          "type": "uint256"
        },
        {
          "name": "offerID",
          "type": "uint256"
        },
        {
          "name": "_ipfsHash",
          "type": "bytes32"
        },
        {
          "name": "verifyFee",
          "type": "uint256"
        },
        {
          "name": "payOut",
          "type": "uint256"
        },
        {
          "name": "v",
          "type": "uint8"
        },
        {
          "name": "r",
          "type": "bytes32"
        },
        {
          "name": "s",
          "type": "bytes32"
        }
      ],
      "name": "verifiedFinalize",
      "outputs": [],
      "payable": false,
      "stateMutability": "nonpayable",
      "type": "function"
    },
    {
      "constant": false,
      "inputs": [
        {
          "name": "listingID",
          "type": "uint256"
        },
        {
          "name": "offerID",
          "type": "uint256"
        },
        {
          "name": "_ipfsHash",
          "type": "bytes32"
        },
        {
          "name": "behalfFee",
          "type": "uint256"
        },
        {
          "name": "verifyFee",
          "type": "uint256"
        },
        {
          "name": "payOut",
          "type": "uint256"
        },
        {
          "name": "v_seller",
          "type": "uint8"
        },
        {
          "name": "r_seller",
          "type": "bytes32"
        },
        {
          "name": "s_seller",
          "type": "bytes32"
        },
        {
          "name": "v",
          "type": "uint8"
        },
        {
          "name": "r",
          "type": "bytes32"
        },
        {
          "name": "s",
          "type": "bytes32"
        }
      ],
      "name": "verifiedOnBehalfFinalize",
      "outputs": [],
      "payable": false,
      "stateMutability": "nonpayable",
      "type": "function"
    },
    {
      "constant": false,
      "inputs": [
        {
          "name": "listingID",
          "type": "uint256"
        },
        {
          "name": "offerID",
          "type": "uint256"
        },
        {
          "name": "_ipfsHash",
          "type": "bytes32"
        }
      ],
      "name": "finalize",
      "outputs": [],
      "payable": false,
      "stateMutability": "nonpayable",
      "type": "function"
    },
    {
      "constant": false,
      "inputs": [
        {
          "name": "listingID",
          "type": "uint256"
        },
        {
          "name": "offerID",
          "type": "uint256"
        },
        {
          "name": "_ipfsHash",
          "type": "bytes32"
        }
      ],
      "name": "dispute",
      "outputs": [],
      "payable": false,
      "stateMutability": "nonpayable",
      "type": "function"
    },
    {
      "constant": false,
      "inputs": [
        {
          "name": "listingID",
          "type": "uint256"
        },
        {
          "name": "offerID",
          "type": "uint256"
        },
        {
          "name": "_ipfsHash",
          "type": "bytes32"
        },
        {
          "name": "_ruling",
          "type": "uint256"
        },
        {
          "name": "_refund",
          "type": "uint256"
        }
      ],
      "name": "executeRuling",
      "outputs": [],
      "payable": false,
      "stateMutability": "nonpayable",
      "type": "function"
    },
    {
      "constant": false,
      "inputs": [
        {
          "name": "listingID",
          "type": "uint256"
        },
        {
          "name": "offerID",
          "type": "uint256"
        },
        {
          "name": "_refund",
          "type": "uint256"
        },
        {
          "name": "_ipfsHash",
          "type": "bytes32"
        }
      ],
      "name": "updateRefund",
      "outputs": [],
      "payable": false,
      "stateMutability": "nonpayable",
      "type": "function"
    },
    {
      "constant": false,
      "inputs": [
        {
          "name": "listingID",
          "type": "uint256"
        },
        {
          "name": "offerID",
          "type": "uint256"
        },
        {
          "name": "ipfsHash",
          "type": "bytes32"
        }
      ],
      "name": "addData",
      "outputs": [],
      "payable": false,
      "stateMutability": "nonpayable",
      "type": "function"
    },
    {
      "constant": false,
      "inputs": [
        {
          "name": "ipfsHash",
          "type": "bytes32"
        }
      ],
      "name": "addData",
      "outputs": [],
      "payable": false,
      "stateMutability": "nonpayable",
      "type": "function"
    },
    {
      "constant": false,
      "inputs": [
        {
          "name": "listingID",
          "type": "uint256"
        },
        {
          "name": "ipfsHash",
          "type": "bytes32"
        }
      ],
      "name": "addData",
      "outputs": [],
      "payable": false,
      "stateMutability": "nonpayable",
      "type": "function"
    },
    {
      "constant": false,
      "inputs": [
        {
          "name": "_tokenAddr",
          "type": "address"
        }
      ],
      "name": "setTokenAddr",
      "outputs": [],
      "payable": false,
      "stateMutability": "nonpayable",
      "type": "function"
    },
    {
      "constant": false,
      "inputs": [
        {
          "name": "_affiliate",
          "type": "address"
        },
        {
          "name": "ipfsHash",
          "type": "bytes32"
        }
      ],
      "name": "addAffiliate",
      "outputs": [],
      "payable": false,
      "stateMutability": "nonpayable",
      "type": "function"
    },
    {
      "constant": false,
      "inputs": [
        {
          "name": "_affiliate",
          "type": "address"
        },
        {
          "name": "ipfsHash",
          "type": "bytes32"
        }
      ],
      "name": "removeAffiliate",
      "outputs": [],
      "payable": false,
      "stateMutability": "nonpayable",
      "type": "function"
    },
    {
      "constant": false,
      "inputs": [
        {
          "name": "sellers",
          "type": "address[]"
        },
        {
          "name": "listingIds",
          "type": "uint256[]"
        },
        {
          "name": "ipfsHashes",
          "type": "bytes32[]"
        }
      ],
      "name": "createListings",
      "outputs": [],
      "payable": false,
      "stateMutability": "nonpayable",
      "type": "function"
    },
    {
      "constant": false,
      "inputs": [
        {
          "name": "sellers",
          "type": "address[]"
        },
        {
          "name": "listingIds",
          "type": "uint256[]"
        },
        {
          "name": "ipfsHashes",
          "type": "bytes32[]"
        }
      ],
      "name": "updateListings",
      "outputs": [],
      "payable": false,
      "stateMutability": "nonpayable",
      "type": "function"
    },
    {
      "constant": false,
      "inputs": [
        {
          "name": "sellers",
          "type": "address[]"
        },
        {
          "name": "listingIds",
          "type": "uint256[]"
        },
        {
          "name": "ipfsHashes",
          "type": "bytes32[]"
        }
      ],
      "name": "withdrawListings",
      "outputs": [],
      "payable": false,
      "stateMutability": "nonpayable",
      "type": "function"
    }
  ],
  "bytecode": "0x60806040523480156200001157600080fd5b50604051604080620045dd8339810160405280516020909101516000805433600160a060020a03199182168117909116179055620000588264010000000062000097810204565b6000805260026020527fac33ff75c19e70fe83507db0d683fd3465c996598dc972688b7ace676c89077b805460ff1916600117905560035550620000d1565b600054600160a060020a03163314620000af57600080fd5b60048054600160a060020a031916600160a060020a0392909216919091179055565b6144fc80620000e16000396000f3006080604052600436106101715763ffffffff60e060020a600035041663063127f6811461017657806308a2d4c6146101a85780631d34be47146101ef5780631f68a16c146102105780631fae74ed1461025e57806328af94c8146102975780632ebd1e28146102af5780633b011875146102d057806347b480d61461030957806347bb8e661461036b5780634d03a9a5146104325780634f145bf4146104b45780635fbe4d1d146104f75780636860492414610528578063708097571461056d578063715018a61461058b57806378572816146105a05780637d0c3624146105c45780637d19514d1461068b57806388bd61671461069f5780638da5cb5b1461076657806391f1f3101461077b578063963ff4cb146107a55780639a8d10a3146107c65780639c3f7ca2146107e1578063a0823111146107ff578063c73111dd14610823578063d9fefbf814610847578063ebe65f6014610865578063f2fde38b14610883578063fde34dc4146108a4575b600080fd5b34801561018257600080fd5b506101a660043560243560443560643560843560ff60a4351660c43560e4356108c2565b005b6101a6600435602435604435606435600160a060020a0360843581169060a4359060c4359060e4358116906101043581169061012435811690610144351661016435610998565b3480156101fb57600080fd5b506101a66004356024356044356064356109c4565b6101a6600160a060020a036004358116906024359060443590606435906084359060a43581169060c4359060e435906101043581169061012435811690610144358116906101643516610b48565b34801561026a57600080fd5b506101a6600435602435604435606435600160a060020a036084351660ff60a4351660c43560e435611148565b3480156102a357600080fd5b506101a66004356114d3565b3480156102bb57600080fd5b506101a6600160a060020a036004351661150c565b3480156102dc57600080fd5b506101a6600435602435604435606435600160a060020a036084351660ff60a4351660c43560e435611552565b610357600160a060020a036004358116906024359060443590606435906084359060a43581169060c4359060e4359061010435811690610124358116906101443581169061016435166118b3565b604080519115158252519081900360200190f35b34801561037757600080fd5b50604080516020600480358082013583810280860185019096528085526101a695369593946024949385019291829185019084908082843750506040805187358901803560208181028481018201909552818452989b9a998901989297509082019550935083925085019084908082843750506040805187358901803560208181028481018201909552818452989b9a99890198929750908201955093508392508501908490808284375094975061193f9650505050505050565b34801561043e57600080fd5b5061044d600435602435611b50565b604080519b8c5260208c019a909a528a8a0198909852600160a060020a0396871660608b015294861660808a015292851660a089015290841660c088015260e087015260ff1661010086015281166101208501521661014083015251908190036101600190f35b6101a6600435602435604435606435600160a060020a0360843581169060a4359060c4359060e43581169061010435811690610124358116906101443516611bde565b34801561050357600080fd5b5061050c611bff565b60408051600160a060020a039092168252519081900360200190f35b34801561053457600080fd5b506101a660043560243560443560643560843560a43560ff60c43581169060e43590610104359061012435166101443561016435611c0e565b34801561057957600080fd5b506101a6600435602435604435611dcd565b34801561059757600080fd5b506101a6611f74565b3480156105ac57600080fd5b506101a6600160a060020a0360043516602435611fe0565b3480156105d057600080fd5b50604080516020600480358082013583810280860185019096528085526101a695369593946024949385019291829185019084908082843750506040805187358901803560208181028481018201909552818452989b9a998901989297509082019550935083925085019084908082843750506040805187358901803560208181028481018201909552818452989b9a9989019892975090820195509350839250850190849080828437509497506120539650505050505050565b6101a660043560243560443560643561225d565b3480156106ab57600080fd5b50604080516020600480358082013583810280860185019096528085526101a695369593946024949385019291829185019084908082843750506040805187358901803560208181028481018201909552818452989b9a998901989297509082019550935083925085019084908082843750506040805187358901803560208181028481018201909552818452989b9a99890198929750908201955093508392508501908490808284375094975061253f9650505050505050565b34801561077257600080fd5b5061050c612749565b34801561078757600080fd5b50610793600435612758565b60408051918252519081900360200190f35b3480156107b157600080fd5b50610357600160a060020a036004351661276a565b3480156107d257600080fd5b506101a660043560243561277f565b3480156107ed57600080fd5b506101a66004356024356044356127ba565b34801561080b57600080fd5b506101a6600160a060020a036004351660243561292e565b34801561082f57600080fd5b506101a660043560243560443560643560843561299e565b34801561085357600080fd5b506101a6600435602435604435612c3a565b34801561087157600080fd5b506101a6600435602435604435612c79565b34801561088f57600080fd5b506101a6600160a060020a0360043516612e64565b3480156108b057600080fd5b506101a6600435602435604435612e87565b60008881526001602052604090208054339190899081106108df57fe5b60009182526020909120600a90910201600801546101009004600160a060020a03161461097c576040805160e560020a62461bcd02815260206004820152603560248201527f4f6e6c79207468652073656c6c65722063616e207665726966792066696e616c60448201527f697a652074686973207472616e73616374696f6e2e0000000000000000000000606482015290519081900360840190fd5b61098e8888886000898989898961305e565b5050505050505050565b6109a38c828c612c79565b6109b68c8c8c8c8c8c8c8c8c8c8c611bde565b505050505050505050505050565b60008481526001602052604081208054859081106109de57fe5b60009182526020909120600a9091020160088101549091506101009004600160a060020a03163314610a5a576040805160e560020a62461bcd02815260206004820152601060248201527f53656c6c6572206d7573742063616c6c00000000000000000000000000000000604482015290519081900360640190fd5b600881015460ff16600214610aa7576040805160e560020a62461bcd0281526020600482015260126024820152600080516020614491833981519152604482015290519081900360640190fd5b8054831115610b00576040805160e560020a62461bcd02815260206004820152601060248201527f45786365737369766520726566756e6400000000000000000000000000000000604482015290519081900360640190fd5b600181018390556040805183815290518591879133917f9b7312a236066d2da679eba7e3a2e86d2d07a973819499846c0efd2fd2506c80919081900360200190a45050505050565b3060009081526002602052604090205460ff1680610b7e5750600160a060020a03871660009081526002602052604090205460ff165b1515610bc2576040805160e560020a62461bcd02815260206004820152601560248201526000805160206144b1833981519152604482015290519081900360640190fd5b600160a060020a0387161515610c28578515610c28576040805160e560020a62461bcd02815260206004820152601d60248201527f636f6d6d697373696f6e20726571756972657320616666696c69617465000000604482015290519081900360640190fd5b6000861115610cf057600460009054906101000a9004600160a060020a0316600160a060020a03166323b872dd8d30896040518463ffffffff1660e060020a0281526004018084600160a060020a0316600160a060020a0316815260200183600160a060020a0316600160a060020a031681526020018281526020019350505050602060405180830381600087803b158015610cc357600080fd5b505af1158015610cd7573d6000803e3d6000fd5b505050506040513d6020811015610ced57600080fd5b50505b600160008c8152602001908152602001600020610160604051908101604052808781526020016000815260200188815260200186600160a060020a031681526020018e600160a060020a0316815260200189600160a060020a0316815260200185600160a060020a031681526020018a8152602001600160ff16815260200184600160a060020a0316815260200183600160a060020a03168152509080600181540180825580915050906001820390600052602060002090600a02016000909192909190915060008201518160000155602082015181600101556040820151816002015560608201518160030160006101000a815481600160a060020a030219169083600160a060020a0316021790555060808201518160040160006101000a815481600160a060020a030219169083600160a060020a0316021790555060a08201518160050160006101000a815481600160a060020a030219169083600160a060020a0316021790555060c08201518160060160006101000a815481600160a060020a030219169083600160a060020a0316021790555060e082015181600701556101008201518160080160006101000a81548160ff021916908360ff1602179055506101208201518160080160016101000a815481600160a060020a030219169083600160a060020a031602179055506101408201518160090160006101000a815481600160a060020a030219169083600160a060020a0316021790555050505083600160a060020a031660001415610f8157348514610f7c576040805160e560020a62461bcd02815260206004820152601d60248201527f4554482076616c756520646f65736e2774206d61746368206f66666572000000604482015290519081900360640190fd5b6110c7565b3415610fd7576040805160e560020a62461bcd02815260206004820152601160248201527f45544820776f756c64206265206c6f7374000000000000000000000000000000604482015290519081900360640190fd5b604080517f23b872dd000000000000000000000000000000000000000000000000000000008152336004820152306024820152604481018790529051600160a060020a038616916323b872dd9160648083019260209291908290030181600087803b15801561104557600080fd5b505af1158015611059573d6000803e3d6000fd5b505050506040513d602081101561106f57600080fd5b505115156110c7576040805160e560020a62461bcd02815260206004820152601360248201527f7472616e7366657246726f6d206661696c656400000000000000000000000000604482015290519081900360640190fd5b60018060008d815260200190815260200160002080549050038b8d600160a060020a03167f51925063546fd5f89ac754d8da769e20ede0fbc4adbfdbd397862aceb95335218c8e60405180836000191660001916815260200182600019166000191681526020019250505060405180910390a4505050505050505050505050565b600084600160a060020a031660016111628b8b8b8b61341b565b60408051600080825260208083018085529490945260ff8a16828401526060820189905260808201889052915160a08083019493601f198301938390039091019190865af11580156111b8573d6000803e3d6000fd5b50505060206040510351600160a060020a0316141515611248576040805160e560020a62461bcd02815260206004820152603860248201527f546865206f6666657220616363657074616e6365207369676e6174757265206460448201527f6f6573206e6f74206d61746368207468652073656c6c65720000000000000000606482015290519081900360840190fd5b600089815260016020526040902080548990811061126257fe5b600091825260209091206008600a90920201908101549091506101009004600160a060020a03161580156112a257506009810154600160a060020a031633145b1515611344576040805160e560020a62461bcd02815260206004820152604660248201527f546865206c697374696e67206d75737420626520616e206f70656e206f66666560448201527f7220616e64207468652073656e646572206d757374206265207468652076657260648201527f69666965722e0000000000000000000000000000000000000000000000000000608482015290519081900360a40190fd5b805486106113c2576040805160e560020a62461bcd02815260206004820152603360248201527f5468657265206973206e6f7420656e6f7567682076616c756520746f2070617960448201527f206f66662074686520626568616c662066656500000000000000000000000000606482015290519081900360840190fd5b8054869003815560038101546113e290600160a060020a0316338861369d565b60088101805474ffffffffffffffffffffffffffffffffffffffff001916610100600160a060020a03881602179081905560ff1660011461145b576040805160e560020a62461bcd0281526020600482015260116024820152600080516020614471833981519152604482015290519081900360640190fd5b633b9aca008160070154101561147657600781018054420190555b60088101805460ff1916600217905560408051888152905189918b91600160a060020a038916917f449224201a35688b74a38ff24770e8b2a326ebf42357bf19a36f5fedbbe552a0919081900360200190a4505050505050505050565b60408051828152905133917f8e530f3a09c59fdf1b0d5ed714b7a5b94c059256cdc29b8521e9891734c6a2b7919081900360200190a250565b600054600160a060020a0316331461152357600080fd5b6004805473ffffffffffffffffffffffffffffffffffffffff1916600160a060020a0392909216919091179055565b600084600160a060020a0316600161156c8b8b8b8b61341b565b60408051600080825260208083018085529490945260ff8a16828401526060820189905260808201889052915160a08083019493601f198301938390039091019190865af11580156115c2573d6000803e3d6000fd5b50505060206040510351600160a060020a0316141515611652576040805160e560020a62461bcd02815260206004820152603860248201527f546865206f6666657220616363657074616e6365207369676e6174757265206460448201527f6f6573206e6f74206d61746368207468652073656c6c65720000000000000000606482015290519081900360840190fd5b600089815260016020526040902080548990811061166c57fe5b90600052602060002090600a0201905084600160a060020a03168160080160019054906101000a9004600160a060020a0316600160a060020a031614806116da575060088101546101009004600160a060020a03161580156116da57506004810154600160a060020a031633145b151561177c576040805160e560020a62461bcd02815260206004820152604560248201527f546865206c697374696e67206d7573742062656c6f6e6720746f20656974686560448201527f72207468652073656e646572206f722074686520626568616c66206f6620736560648201527f6e6465722e000000000000000000000000000000000000000000000000000000608482015290519081900360a40190fd5b805486106117fa576040805160e560020a62461bcd02815260206004820152603360248201527f5468657265206973206e6f7420656e6f7567682076616c756520746f2070617960448201527f206f66662074686520626568616c662066656500000000000000000000000000606482015290519081900360840190fd5b80548690038155600381015461181a90600160a060020a0316338861369d565b6008810154600160a060020a0386811661010090920416146118665760088101805474ffffffffffffffffffffffffffffffffffffffff001916610100600160a060020a038816021790555b600881015460ff1660011461145b576040805160e560020a62461bcd0281526020600482015260116024820152600080516020614471833981519152604482015290519081900360640190fd5b600454600090600160a060020a03163314611918576040805160e560020a62461bcd02815260206004820152600f60248201527f546f6b656e206d7573742063616c6c0000000000000000000000000000000000604482015290519081900360640190fd5b61192c8d8d8d8d8d8d8d8d8d8d8d8d610b48565b5060019c9b505050505050505050505050565b3060009081526002602052604081205460ff1690818061196e57503360009081526002602052604090205460ff165b15156119b2576040805160e560020a62461bcd02815260206004820152601560248201526000805160206144b1833981519152604482015290519081900360640190fd5b8351855114611a31576040805160e560020a62461bcd02815260206004820152603160248201527f4c697374696e6773206c656e67746820616e642073656c6c657273206c656e6760448201527f746820646f6573206e6f74206d61746368000000000000000000000000000000606482015290519081900360840190fd5b8251855114611ab0576040805160e560020a62461bcd02815260206004820152602f60248201527f486173686573206c656e67746820616e642073656c6c657273206c656e67746860448201527f20646f6573206e6f74206d617463680000000000000000000000000000000000606482015290519081900360840190fd5b5060005b8451811015611b49578381815181101515611acb57fe5b906020019060200201518582815181101515611ae357fe5b90602001906020020151600160a060020a03167fafa3dc4f271ef3419006f21140d375eba48ef3def56e8bfe6d54d0c72a81a3078584815181101515611b2557fe5b602090810290910181015160408051918252519081900390910190a3600101611ab4565b5050505050565b600160205281600052604060002081815481101515611b6b57fe5b60009182526020909120600a90910201805460018201546002830154600384015460048501546005860154600687015460078801546008890154600990990154979a509598509396600160a060020a03938416969284169591841694841693919260ff821692610100909204821691168b565b611bf2338c8c8c8c8c8c8c8c8c8c8c610b48565b5050505050505050505050565b600454600160a060020a031681565b888711611c8b576040805160e560020a62461bcd02815260206004820152602760248201527f5061796f7574206d757374206265206d6f7265207468616e207468652062656860448201527f616c662066656500000000000000000000000000000000000000000000000000606482015290519081900360840190fd5b60008c815260016020526040902080548c908110611ca557fe5b60009182526020909120600a90910201600801546101009004600160a060020a03166001611cd68e8e8e8c8f613817565b60408051600080825260208083018085529490945260ff8c1682840152606082018b9052608082018a9052915160a08083019493601f198301938390039091019190865af1158015611d2c573d6000803e3d6000fd5b50505060206040510351600160a060020a0316141515611dbc576040805160e560020a62461bcd02815260206004820152603760248201527f54686520626568616c662066696e616c697a65207369676e617475726520646f60448201527f6573206e6f74206d61746368207468652073656c6c6572000000000000000000606482015290519081900360840190fd5b6109b68c8c8c8c8c8c89898961305e565b6000838152600160205260408120805484908110611de757fe5b60009182526020909120600a909102016004810154909150600160a060020a0316331480611e26575060088101546101009004600160a060020a031633145b1515611e7c576040805160e560020a62461bcd02815260206004820152601760248201527f4d7573742062652073656c6c6572206f72206275796572000000000000000000604482015290519081900360640190fd5b600881015460ff16600214611ec9576040805160e560020a62461bcd0281526020600482015260126024820152600080516020614491833981519152604482015290519081900360640190fd5b6007810154421115611f25576040805160e560020a62461bcd02815260206004820152601160248201527f416c72656164792066696e616c697a6564000000000000000000000000000000604482015290519081900360640190fd5b60088101805460ff191660031790556040805183815290518491869133917f11c45991938e1dec0b00887cd2368a2195fccb46b08cc56483ac3053ddb609b2919081900360200190a450505050565b600054600160a060020a03163314611f8b57600080fd5b60008054604051600160a060020a03909116917ff8df31144d9c2f0f6b59d69b8b98abd5459d07f2742c4df920b25aae33c6482091a26000805473ffffffffffffffffffffffffffffffffffffffff19169055565b600054600160a060020a03163314611ff757600080fd5b600160a060020a038216600081815260026020908152604091829020805460ff19166001179055815184815291517f5e48128fde8c162f70ea9f59d0a58f1d1cc40c2eec4b4c71356ab395650bfbdf9281900390910190a25050565b3060009081526002602052604081205460ff1690818061208257503360009081526002602052604090205460ff165b15156120c6576040805160e560020a62461bcd02815260206004820152601560248201526000805160206144b1833981519152604482015290519081900360640190fd5b8351855114612145576040805160e560020a62461bcd02815260206004820152603160248201527f4c697374696e6773206c656e67746820616e642073656c6c657273206c656e6760448201527f746820646f6573206e6f74206d61746368000000000000000000000000000000606482015290519081900360840190fd5b82518551146121c4576040805160e560020a62461bcd02815260206004820152602f60248201527f486173686573206c656e67746820616e642073656c6c657273206c656e67746860448201527f20646f6573206e6f74206d617463680000000000000000000000000000000000606482015290519081900360840190fd5b5060005b8451811015611b495783818151811015156121df57fe5b9060200190602002015185828151811015156121f757fe5b90602001906020020151600160a060020a03167f470503ad37642fff73a57bac35e69733b6b38281a893f39b50c285aad1f040e0858481518110151561223957fe5b602090810290910181015160408051918252519081900390910190a36001016121c8565b600084815260016020526040812080548590811061227757fe5b60009182526020909120600a909102016004810154909150600160a060020a031633146122ee576040805160e560020a62461bcd02815260206004820152600f60248201527f4275796572206d7573742063616c6c0000000000000000000000000000000000604482015290519081900360640190fd5b600881015460ff1660021461233b576040805160e560020a62461bcd0281526020600482015260126024820152600080516020614491833981519152604482015290519081900360640190fd5b6003810154600160a060020a031615156123ab573482146123a6576040805160e560020a62461bcd02815260206004820152601560248201527f73656e7420213d206f6666657265642076616c75650000000000000000000000604482015290519081900360640190fd5b6124f8565b3415612401576040805160e560020a62461bcd02815260206004820152601460248201527f455448206d757374206e6f742062652073656e74000000000000000000000000604482015290519081900360640190fd5b6003810154604080517f23b872dd000000000000000000000000000000000000000000000000000000008152336004820152306024820152604481018590529051600160a060020a03909216916323b872dd916064808201926020929091908290030181600087803b15801561247657600080fd5b505af115801561248a573d6000803e3d6000fd5b505050506040513d60208110156124a057600080fd5b505115156124f8576040805160e560020a62461bcd02815260206004820152601360248201527f7472616e7366657246726f6d206661696c656400000000000000000000000000604482015290519081900360640190fd5b8054820181556040805184815290518591879133917f5f0e66c42b81a43cbd35b11ea0a599d0be1d8e1fdb61d1d4f7a98243ba6cc26b919081900360200190a45050505050565b3060009081526002602052604081205460ff1690818061256e57503360009081526002602052604090205460ff165b15156125b2576040805160e560020a62461bcd02815260206004820152601560248201526000805160206144b1833981519152604482015290519081900360640190fd5b8351855114612631576040805160e560020a62461bcd02815260206004820152603160248201527f4c697374696e6773206c656e67746820616e642073656c6c657273206c656e6760448201527f746820646f6573206e6f74206d61746368000000000000000000000000000000606482015290519081900360840190fd5b82518551146126b0576040805160e560020a62461bcd02815260206004820152602f60248201527f486173686573206c656e67746820616e642073656c6c657273206c656e67746860448201527f20646f6573206e6f74206d617463680000000000000000000000000000000000606482015290519081900360840190fd5b5060005b8451811015611b495783818151811015156126cb57fe5b9060200190602002015185828151811015156126e357fe5b90602001906020020151600160a060020a03167fec3d306143145322b45d2788d826e3b7b9ad062f16e1ec59a5eaba214f96ee3c858481518110151561272557fe5b602090810290910181015160408051918252519081900390910190a36001016126b4565b600054600160a060020a031681565b60009081526001602052604090205490565b60026020526000908152604090205460ff1681565b604080518281529051839133917f12dc84d4005dd5b86fd88951106aa76927a62b83b85ba9c912a7268582906aa99181900360200190a35050565b60008381526001602052604081208054849081106127d457fe5b600091825260209091206008600a90920201908101549091506101009004600160a060020a03163314612877576040805160e560020a62461bcd02815260206004820152602660248201527f546865206c697374696e67206d7573742062656c6f6e6720746f20746865207360448201527f656e6465722e0000000000000000000000000000000000000000000000000000606482015290519081900360840190fd5b600881015460ff166001146128c4576040805160e560020a62461bcd0281526020600482015260116024820152600080516020614471833981519152604482015290519081900360640190fd5b633b9aca00816007015410156128df57600781018054420190555b60088101805460ff191660021790556040805183815290518491869133917f449224201a35688b74a38ff24770e8b2a326ebf42357bf19a36f5fedbbe552a0919081900360200190a450505050565b600054600160a060020a0316331461294557600080fd5b600160a060020a038216600081815260026020908152604091829020805460ff19169055815184815291517f3553c89fbe376344fc3e6cfb39cce65e6d961cece468c297dad2a1e31d4fa2b69281900390910190a25050565b60008581526001602052604081208054869081106129b857fe5b60009182526020909120600a909102016006810154909150600160a060020a03163314612a2f576040805160e560020a62461bcd02815260206004820152601260248201527f4d7573742062652061726269747261746f720000000000000000000000000000604482015290519081900360640190fd5b600881015460ff16600314612a8e576040805160e560020a62461bcd02815260206004820152601260248201527f73746174757320213d2064697370757465640000000000000000000000000000604482015290519081900360640190fd5b8054821115612ae7576040805160e560020a62461bcd02815260206004820152600f60248201527f726566756e6420746f6f20686967680000000000000000000000000000000000604482015290519081900360640190fd5b60018082018390558381161415612b0757612b028686613aa1565b612b11565b612b118686613c4a565b8260021660021415612b2c57612b278686613f7d565b612b36565b612b3686866140a3565b60068101546040805186815260208101869052815188938a93600160a060020a03909116927f3e4d55eb2a402ba6f500db5d75f9303dfe863a2e8319054aeddb6a35ec7e3c61929081900390910190a46000868152600160205260409020805486908110612ba057fe5b600091825260208220600a90910201818155600181018290556002810182905560038101805473ffffffffffffffffffffffffffffffffffffffff19908116909155600482018054821690556005820180548216905560068201805482169055600782019290925560088101805474ffffffffffffffffffffffffffffffffffffffffff1916905560090180549091169055505050505050565b6040805182815290518391859133917f9b7312a236066d2da679eba7e3a2e86d2d07a973819499846c0efd2fd2506c80919081900360200190a4505050565b6000838152600160205260408120805484908110612c9357fe5b60009182526020909120600a909102016004810154909150600160a060020a03163314612d0a576040805160e560020a62461bcd02815260206004820152601360248201527f5265737472696374656420746f20627579657200000000000000000000000000604482015290519081900360640190fd5b600881015460ff16600114612d57576040805160e560020a62461bcd0281526020600482015260116024820152600080516020614471833981519152604482015290519081900360640190fd5b612d618484613aa1565b600081600201541115612d7857612d7884846140a3565b6040805183815290518491869133917fe9ae767ab1c8f3f874a5b2810a1f6323b43283a5b462b52a4de5f8ed53a4fe25919081900360200190a46000848152600160205260409020805484908110612dcc57fe5b600091825260208220600a90910201818155600181018290556002810182905560038101805473ffffffffffffffffffffffffffffffffffffffff19908116909155600482018054821690556005820180548216905560068201805482169055600782019290925560088101805474ffffffffffffffffffffffffffffffffffffffffff191690556009018054909116905550505050565b600054600160a060020a03163314612e7b57600080fd5b612e84816141b7565b50565b6000838152600160205260408120805484908110612ea157fe5b90600052602060002090600a02019050806007015442111515612f27576004810154600160a060020a03163314612f22576040805160e560020a62461bcd02815260206004820152601760248201527f4f6e6c792062757965722063616e2066696e616c697a65000000000000000000604482015290519081900360640190fd5b612fa9565b6004810154600160a060020a0316331480612f53575060088101546101009004600160a060020a031633145b1515612fa9576040805160e560020a62461bcd02815260206004820152601d60248201527f53656c6c6572206f72206275796572206d7573742066696e616c697a65000000604482015290519081900360640190fd5b600881015460ff16600214612ff6576040805160e560020a62461bcd0281526020600482015260126024820152600080516020614491833981519152604482015290519081900360640190fd5b6130008484613c4a565b61300a8484613f7d565b6040805183815290518491869133917fbfefa76df66ac53c6517b1939b14bfc4d5fdf714b93a71aea2e50977d1b3b8e6919081900360200190a46000848152600160205260409020805484908110612dcc57fe5b600089815260016020526040812080548291908b90811061307b57fe5b60009182526020909120600a909102016009810154909250600160a060020a031660016130ab8d8d8d8b8d613817565b60408051600080825260208083018085529490945260ff8b1682840152606082018a905260808201899052915160a08083019493601f198301938390039091019190865af1158015613101573d6000803e3d6000fd5b50505060206040510351600160a060020a0316141515613191576040805160e560020a62461bcd02815260206004820152603260248201527f5468652066696e616c697a65207369676e617475726520646f6573206e6f742060448201527f6d61746368207468652076657269666965720000000000000000000000000000606482015290519081900360840190fd5b600882015460ff166002146131de576040805160e560020a62461bcd0281526020600482015260126024820152600080516020614491833981519152604482015290519081900360640190fd5b600182015482540386111561323d576040805160e560020a62461bcd02815260206004820152601860248201527f4f666665722063616e6e6f74206d616b65207061796f75740000000000000000604482015290519081900360640190fd5b8787018611613296576040805160e560020a62461bcd02815260206004820152601360248201527f43616e6e6f7420706179206f6666206665657300000000000000000000000000604482015290519081900360640190fd5b508460008811156132c65781548890038255600382015490889003906132c690600160a060020a0316338a61369d565b60008711156132fc57815487900382556003820154600983015491889003916132fc91600160a060020a0390811691168961369d565b815481900360018301556133108b8b613c4a565b61331a8b8b613f7d565b6009820154604080518b815290518c928e92600160a060020a03909116917fbfefa76df66ac53c6517b1939b14bfc4d5fdf714b93a71aea2e50977d1b3b8e69181900360200190a460008b815260016020526040902080548b90811061337c57fe5b600091825260208220600a90910201818155600181018290556002810182905560038101805473ffffffffffffffffffffffffffffffffffffffff19908116909155600482018054821690556005820180548216905560068201805482169055600782019290925560088101805474ffffffffffffffffffffffffffffffffffffffffff19169055600901805490911690555050505050505050505050565b6000613425614234565b608060405190810160405280605181526020017f4163636570744f666665722875696e74323536206c697374696e6749442c756981526020017f6e74323536206f6666657249442c627974657333322069706673486173682c7581526020017f696e7432353620626568616c66466565290000000000000000000000000000008152506040516020018082805190602001908083835b602083106134da5780518252601f1990920191602091820191016134bb565b6001836020036101000a0380198251168184511680821785525050505050509050019150506040516020818303038152906040526040518082805190602001908083835b6020831061353d5780518252601f19909201916020918201910161351e565b51815160209384036101000a600019018019909216911617905260408051929094018290038220828201528184018c9052606082018b9052608082018a905260a08083018a90528451808403909101815260c09092019384905281519195509293508392850191508083835b602083106135c85780518252601f1990920191602091820191016135a9565b51815160209384036101000a6000190180199092169116179052604080519290940182900382207f190100000000000000000000000000000000000000000000000000000000000083830152602283019790975260428083019790975283518083039097018752606290910192839052855192945084935085019190508083835b602083106136685780518252601f199092019160209182019101613649565b5181516020939093036101000a6000190180199091169216919091179052604051920182900390912098975050505050505050565b600160a060020a038316151561372d57604051600160a060020a0383169082156108fc029083906000818181858888f193505050501515613728576040805160e560020a62461bcd02815260206004820152601960248201527f43616e6e6f742073656e642066656520746f2073656e64657200000000000000604482015290519081900360640190fd5b613812565b82600160a060020a031663a9059cbb83836040518363ffffffff1660e060020a0281526004018083600160a060020a0316600160a060020a0316815260200182815260200192505050602060405180830381600087803b15801561379057600080fd5b505af11580156137a4573d6000803e3d6000fd5b505050506040513d60208110156137ba57600080fd5b50511515613812576040805160e560020a62461bcd02815260206004820152600f60248201527f53656e6420666565206661696c65640000000000000000000000000000000000604482015290519081900360640190fd5b505050565b6000613821614234565b608060405190810160405280605d81526020017f46696e616c697a652875696e74323536206c697374696e6749442c75696e743281526020017f3536206f6666657249442c627974657333322069706673486173682c75696e7481526020017f323536207061794f75742c75696e7432353620626568616c66466565290000008152506040516020018082805190602001908083835b602083106138d65780518252601f1990920191602091820191016138b7565b6001836020036101000a0380198251168184511680821785525050505050509050019150506040516020818303038152906040526040518082805190602001908083835b602083106139395780518252601f19909201916020918201910161391a565b51815160209384036101000a600019018019909216911617905260408051929094018290038220828201528184018d9052606082018c9052608082018b905260a082018a905260c08083018a90528451808403909101815260e09092019384905281519195509293508392850191508083835b602083106139cb5780518252601f1990920191602091820191016139ac565b51815160209384036101000a6000190180199092169116179052604080519290940182900382207f190100000000000000000000000000000000000000000000000000000000000083830152602283019790975260428083019790975283518083039097018752606290910192839052855192945084935085019190508083835b60208310613a6b5780518252601f199092019160209182019101613a4c565b5181516020939093036101000a600019018019909116921691909117905260405192018290039091209998505050505050505050565b6000828152600160205260408120805483908110613abb57fe5b60009182526020909120600a909102016003810154909150600160a060020a03161515613b645760048101548154604051600160a060020a039092169181156108fc0291906000818181858888f193505050501515613728576040805160e560020a62461bcd02815260206004820152601160248201527f45544820726566756e64206661696c6564000000000000000000000000000000604482015290519081900360640190fd5b600381015460048083015483546040805160e060020a63a9059cbb028152600160a060020a039384169481019490945260248401919091525192169163a9059cbb916044808201926020929091908290030181600087803b158015613bc857600080fd5b505af1158015613bdc573d6000803e3d6000fd5b505050506040513d6020811015613bf257600080fd5b50511515613812576040805160e560020a62461bcd02815260206004820152600d60248201527f526566756e64206661696c656400000000000000000000000000000000000000604482015290519081900360640190fd5b6000828152600160205260408120805482919084908110613c6757fe5b60009182526020909120600a90910201600181015481546003830154929450039150600160a060020a03161515613da75760048201546001830154604051600160a060020a039092169181156108fc0291906000818181858888f193505050501515613d1d576040805160e560020a62461bcd02815260206004820152601160248201527f45544820726566756e64206661696c6564000000000000000000000000000000604482015290519081900360640190fd5b6008820154604051610100909104600160a060020a0316906108fc8315029083906000818181858888f193505050501515613da2576040805160e560020a62461bcd02815260206004820152600f60248201527f4554482073656e64206661696c65640000000000000000000000000000000000604482015290519081900360640190fd5b613f77565b600382015460048084015460018501546040805160e060020a63a9059cbb028152600160a060020a039384169481019490945260248401919091525192169163a9059cbb916044808201926020929091908290030181600087803b158015613e0e57600080fd5b505af1158015613e22573d6000803e3d6000fd5b505050506040513d6020811015613e3857600080fd5b50511515613e90576040805160e560020a62461bcd02815260206004820152600d60248201527f526566756e64206661696c656400000000000000000000000000000000000000604482015290519081900360640190fd5b600382015460088301546040805160e060020a63a9059cbb028152610100909204600160a060020a03908116600484015260248301859052905192169163a9059cbb916044808201926020929091908290030181600087803b158015613ef557600080fd5b505af1158015613f09573d6000803e3d6000fd5b505050506040513d6020811015613f1f57600080fd5b50511515613f77576040805160e560020a62461bcd02815260206004820152600f60248201527f5472616e73666572206661696c65640000000000000000000000000000000000604482015290519081900360640190fd5b50505050565b6000828152600160205260408120805483908110613f9757fe5b60009182526020909120600a909102016005810154909150600160a060020a0316156138125760048054600583015460028401546040805160e060020a63a9059cbb028152600160a060020a039384169581019590955260248501919091525191169163a9059cbb9160448083019260209291908290030181600087803b15801561402157600080fd5b505af1158015614035573d6000803e3d6000fd5b505050506040513d602081101561404b57600080fd5b50511515613812576040805160e560020a62461bcd02815260206004820152601a60248201527f436f6d6d697373696f6e207472616e73666572206661696c6564000000000000604482015290519081900360640190fd5b60008281526001602052604081208054839081106140bd57fe5b6000918252602080832060048054600a9094029091018181015460028201546040805160e060020a63a9059cbb028152600160a060020a03938416958101959095526024850191909152519196509093169363a9059cbb93604480840194939192918390030190829087803b15801561413557600080fd5b505af1158015614149573d6000803e3d6000fd5b505050506040513d602081101561415f57600080fd5b50511515613812576040805160e560020a62461bcd02815260206004820152601860248201527f436f6d6d697373696f6e20726566756e64206661696c65640000000000000000604482015290519081900360640190fd5b600160a060020a03811615156141cc57600080fd5b60008054604051600160a060020a03808516939216917f8be0079c531659141344cd1fd0a4f28419497f9722a3daafe3b4186f6b6457e091a36000805473ffffffffffffffffffffffffffffffffffffffff1916600160a060020a0392909216919091179055565b60408051608081018252605f8082527f454950373132446f6d61696e28737472696e67206e616d652c737472696e672060208084019182527f76657273696f6e2c75696e7432353620636861696e49642c6164647265737320848601527f766572696679696e67436f6e74726163742c627974657333322073616c7429006060850152935160009401918291908083835b602083106142e45780518252601f1990920191602091820191016142c5565b6001836020036101000a0380198251168184511680821785525050505050509050019150506040516020818303038152906040526040518082805190602001908083835b602083106143475780518252601f199092019160209182019101614328565b51815160001960209485036101000a01908116901991909116179052604080519490920184900384207f4f726967696e2050726f746f636f6c00000000000000000000000000000000008552825194859003600f0185207f3100000000000000000000000000000000000000000000000000000000000000865283519586900360010186206003548785019390935286850191909152606086015260808501523060a085015261066660c0808601919091528251808603909101815260e0909401918290528351939550909350839290850191508083835b6020831061443e5780518252601f19909201916020918201910161441f565b6001836020036101000a0380198251168184511680821785525050505050509050019150506040518091039020905090560073746174757320213d206372656174656400000000000000000000000000000073746174757320213d2061636365707465640000000000000000000000000000416666696c69617465206e6f7420616c6c6f7765640000000000000000000000a165627a7a723058205d9a714a346e3c27c2895bbb25d2277e0963ea64e43eaaf7c6b8dcc3346e38d80029",
  "source": "pragma solidity ^0.4.24;\n\nimport \"../../../node_modules/openzeppelin-solidity/contracts/ownership/Ownable.sol\";\n\n/**\n * @title A Marketplace contract for managing listings, offers, payments, escrow and arbitration\n * @author Nick Poulden <nick@poulden.com>\n *\n * Listings may be priced in Eth or ERC20.\n */\n\n\ncontract ERC20 {\n    function transfer(address _to, uint256 _value) external returns (bool);\n    function transferFrom(address _from, address _to, uint256 _value) external returns (bool);\n}\n\n\ncontract VB_Marketplace is Ownable {\n\n    /**\n    * @notice All events have the same indexed signature offsets for easy filtering\n    */\n    event MarketplaceData  (address indexed party, bytes32 ipfsHash);\n    event AffiliateAdded   (address indexed party, bytes32 ipfsHash);\n    event AffiliateRemoved (address indexed party, bytes32 ipfsHash);\n    event ListingCreated   (address indexed party, uint indexed listingID, bytes32 ipfsHash);\n    event ListingUpdated   (address indexed party, uint indexed listingID, bytes32 ipfsHash);\n    event ListingWithdrawn (address indexed party, uint indexed listingID, bytes32 ipfsHash);\n    event ListingArbitrated(address indexed party, uint indexed listingID, bytes32 ipfsHash);\n    event ListingData      (address indexed party, uint indexed listingID, bytes32 ipfsHash);\n    event OfferCreated     (address indexed party, uint indexed listingID, uint indexed offerID, bytes32 ipfsHash, bytes32 listingIpfsHash);\n    event OfferAccepted    (address indexed party, uint indexed listingID, uint indexed offerID, bytes32 ipfsHash);\n    event OfferFinalized   (address indexed party, uint indexed listingID, uint indexed offerID, bytes32 ipfsHash);\n    event OfferWithdrawn   (address indexed party, uint indexed listingID, uint indexed offerID, bytes32 ipfsHash);\n    event OfferFundsAdded  (address indexed party, uint indexed listingID, uint indexed offerID, bytes32 ipfsHash);\n    event OfferDisputed    (address indexed party, uint indexed listingID, uint indexed offerID, bytes32 ipfsHash);\n    event OfferRuling      (address indexed party, uint indexed listingID, uint indexed offerID, bytes32 ipfsHash, uint ruling);\n    event OfferData        (address indexed party, uint indexed listingID, uint indexed offerID, bytes32 ipfsHash);\n\n    struct Offer {\n        uint value;         // Amount in Eth or ERC20 buyer is offering\n        uint refund;        // Amount to refund buyer upon finalization\n        uint commission;    // Amount of commission earned if offer is finalized\n        ERC20 currency;     // Currency of listing\n        address buyer;      // Buyer wallet / identity contract / other contract\n        address affiliate;  // Address to send any commission\n        address arbitrator; // Address that settles disputes\n        uint finalizes;     // Timestamp offer finalizes\n        uint8 status;       // 0: Undefined, 1: Created, 2: Accepted, 3: Disputed\n        address seller;            // the address of the seller\n        address verifier;          // Address whose signature can verify the terms\n    }\n\n    mapping(uint => Offer[]) public offers; // listingID => Offers\n    mapping(address => bool) public allowedAffiliates;\n\n    uint chainId;\n\n    ERC20 public tokenAddr; // Origin Token address\n\n\n    bytes32 private constant salt = 0x0000000000000000000000000000000000000000000000000000000000000666;\n\n    string private constant EIP712_DOMAIN  = \"EIP712Domain(string name,string version,uint256 chainId,address verifyingContract,bytes32 salt)\";\n    string private constant ACCEPT_OFFER_TYPE = \"AcceptOffer(uint256 listingID,uint256 offerID,bytes32 ipfsHash,uint256 behalfFee)\";\n    string private constant FINALIZE_TYPE = \"Finalize(uint256 listingID,uint256 offerID,bytes32 ipfsHash,uint256 payOut,uint256 behalfFee)\";\n\n    bytes32 private constant EIP712_DOMAIN_TYPEHASH = keccak256(abi.encodePacked(EIP712_DOMAIN));\n    bytes32 private constant ACCEPT_OFFER_TYPEHASH = keccak256(abi.encodePacked(ACCEPT_OFFER_TYPE));\n    bytes32 private constant FINALIZE_TYPEHASH = keccak256(abi.encodePacked(FINALIZE_TYPE));\n\n    constructor(address _tokenAddr, uint _chainId) public {\n        owner = msg.sender;\n        setTokenAddr(_tokenAddr); // Origin Token contract\n        allowedAffiliates[0x0] = true; // Allow null affiliate by default\n        chainId = _chainId;\n    }\n\n    // @dev Return the total number of offers\n    function totalOffers(uint listingID) public view returns (uint) {\n        return offers[listingID].length;\n    }\n\n    // @dev Buyer makes offer.\n    function _makeOffer(\n        address _buyer,\n        uint listingID,\n        bytes32 _listingIpfsHash, // listing IPFS hash that we're making an offer on\n        bytes32 _ipfsHash,   // IPFS hash containing offer data\n        uint _finalizes,     // Timestamp an accepted offer will finalize\n        address _affiliate,  // Address to send any required commission to\n        uint256 _commission, // Amount of commission to send in Origin Token if offer finalizes\n        uint _value,         // Offer amount in ERC20 or Eth\n        ERC20 _currency,     // ERC20 token address or 0x0 for Eth\n        address _arbitrator,  // Escrow arbitrator\n        address _seller,\n        address _verifier\n    )\n        public\n        payable\n    {\n        require(\n            allowedAffiliates[address(this)] || allowedAffiliates[_affiliate],\n            \"Affiliate not allowed\"\n        );\n\n        if (_affiliate == 0x0) {\n            // Avoid commission tokens being trapped in marketplace contract.\n            require(_commission == 0, \"commission requires affiliate\");\n        }\n        if (_commission > 0) {\n            tokenAddr.transferFrom(_buyer, this, _commission); // Transfer Origin Token\n        }\n\n        offers[listingID].push(Offer({\n            status: 1,\n            buyer: _buyer,\n            finalizes: _finalizes,\n            affiliate: _affiliate,\n            commission: _commission,\n            currency: _currency,\n            value: _value,\n            arbitrator: _arbitrator,\n            refund: 0,\n            seller: _seller,\n            verifier: _verifier\n        }));\n\n        if (address(_currency) == 0x0) { // Listing is in ETH\n            require(msg.value == _value, \"ETH value doesn't match offer\");\n        } else { // Listing is in ERC20\n            require(msg.value == 0, \"ETH would be lost\");\n            require(\n                _currency.transferFrom(msg.sender, this, _value),\n                \"transferFrom failed\"\n            );\n        }\n\n        emit OfferCreated(_buyer, listingID, offers[listingID].length-1, _ipfsHash, _listingIpfsHash);\n    }\n\n    function makeOffer(\n        uint listingID,\n        bytes32 _listingIpfsHash, // listing IPFS hash that we're making an offer on\n        bytes32 _ipfsHash,   // IPFS hash containing offer data\n        uint _finalizes,     // Timestamp an accepted offer will finalize\n        address _affiliate,  // Address to send any required commission to\n        uint256 _commission, // Amount of commission to send in Origin Token if offer finalizes\n        uint _value,         // Offer amount in ERC20 or Eth\n        ERC20 _currency,     // ERC20 token address or 0x0 for Eth\n        address _arbitrator,  // Escrow arbitrator\n        address _seller,\n        address _verifier\n    )\n        public\n        payable\n    {\n        _makeOffer(msg.sender, listingID, _listingIpfsHash, _ipfsHash, _finalizes, _affiliate, _commission, _value, _currency, _arbitrator, _seller, _verifier);\n    }\n\n    // @dev Make new offer after withdraw\n    function makeOffer(\n        uint listingID,\n        bytes32 _listingIpfsHash,\n        bytes32 _ipfsHash,\n        uint _finalizes,\n        address _affiliate,\n        uint256 _commission,\n        uint _value,\n        ERC20 _currency,\n        address _arbitrator,\n        address _seller,\n        address _verifier,\n        uint _withdrawOfferID\n    )\n        public\n        payable\n    {\n        withdrawOffer(listingID, _withdrawOfferID, _ipfsHash);\n        makeOffer(listingID, _listingIpfsHash, _ipfsHash, _finalizes,  _affiliate, _commission, _value, _currency, _arbitrator, _seller, _verifier);\n    }\n\n    function makeOfferWithSender(\n        address _buyer,\n        uint listingID,\n        bytes32 _listingIpfsHash,\n        bytes32 _ipfsHash,\n        uint _finalizes,\n        address _affiliate,\n        uint256 _commission,\n        uint _value,\n        ERC20 _currency,\n        address _arbitrator,\n        address _seller,\n        address _verifier\n    )\n        public payable returns (bool)\n    {\n        require(msg.sender == address(tokenAddr), \"Token must call\");\n        _makeOffer(_buyer, listingID, _listingIpfsHash, _ipfsHash, _finalizes, _affiliate, _commission, _value, _currency, _arbitrator, _seller, _verifier);\n        return true;\n    }\n\n    function hashDomain() internal view returns (bytes32)\n    {\n        return keccak256(\n            abi.encode(\n                EIP712_DOMAIN_TYPEHASH,\n                keccak256(\"Origin Protocol\"),\n                keccak256(\"1\"),\n                chainId,\n                address(this),\n                salt\n        ));\n    }\n\n    function hashAcceptOffer(uint listingID, uint offerID, bytes32 ipfsHash, uint behalfFee) internal view returns (bytes32)\n    {\n        return keccak256(\n            abi.encodePacked(\n                \"\\x19\\x01\",\n                hashDomain(),\n                keccak256(\n                    abi.encode(\n                        ACCEPT_OFFER_TYPEHASH,\n                        listingID,\n                        offerID,\n                        ipfsHash,\n                        behalfFee))\n        ));\n    }\n\n    function hashFinalize(uint listingID, uint offerID, bytes32 ipfsHash, uint payOut, uint behalfFee) internal view returns (bytes32)\n    {\n        return keccak256(\n            abi.encodePacked(\n                \"\\x19\\x01\",\n                hashDomain(),\n                keccak256(\n                    abi.encode(\n                        FINALIZE_TYPEHASH,\n                        listingID,\n                        offerID,\n                        ipfsHash,\n                        payOut,\n                        behalfFee))\n        ));\n    }\n\n    function acceptOfferOnBehalf(uint listingID, uint offerID, bytes32 _ipfsHash, uint _behalfFee, address seller, uint8 v, bytes32 r, bytes32 s) public \n    {\n        // Either the seller or a buyer generated offer must accept\n        require(ecrecover(hashAcceptOffer(listingID, offerID, _ipfsHash, _behalfFee), v, r, s) == seller, \"The offer acceptance signature does not match the seller\");\n        Offer storage offer = offers[listingID][offerID];\n        require(offer.seller == seller || (offer.seller == address(0) && offer.buyer == msg.sender), \"The listing must belong to either the sender or the behalf of sender.\");\n        require(offer.value > _behalfFee, \"There is not enough value to pay off the behalf fee\");\n        offer.value -= _behalfFee;\n        payFee(offer.currency, msg.sender, _behalfFee);\n        if (offer.seller != seller) {\n            offer.seller = seller;\n        }\n        require(offer.status == 1, \"status != created\");\n        if (offer.finalizes < 1000000000) { // Relative finalization window\n            offer.finalizes = now + offer.finalizes;\n        }\n        offer.status = 2; // Set offer to 'Accepted'\n        emit OfferAccepted(seller, listingID, offerID, _ipfsHash);\n    }\n\n    function verifyAcceptOfferOnBehalf(uint listingID, uint offerID, bytes32 _ipfsHash, uint _behalfFee, address seller, uint8 v, bytes32 r, bytes32 s) public \n    {\n        // Either the seller or a buyer generated offer must accept\n        require(ecrecover(hashAcceptOffer(listingID, offerID, _ipfsHash, _behalfFee), v, r, s) == seller, \"The offer acceptance signature does not match the seller\");\n        Offer storage offer = offers[listingID][offerID];\n        require((offer.seller == address(0) && offer.verifier == msg.sender), \"The listing must be an open offer and the sender must be the verifier.\");\n        require(offer.value > _behalfFee, \"There is not enough value to pay off the behalf fee\");\n        offer.value -= _behalfFee;\n        payFee(offer.currency, msg.sender, _behalfFee);\n        offer.seller = seller;\n        require(offer.status == 1, \"status != created\");\n        if (offer.finalizes < 1000000000) { // Relative finalization window\n            offer.finalizes = now + offer.finalizes;\n        }\n        offer.status = 2; // Set offer to 'Accepted'\n        emit OfferAccepted(seller, listingID, offerID, _ipfsHash);\n    }\n\n\n    // @dev Seller accepts offer\n    function acceptOffer(uint listingID, uint offerID, bytes32 _ipfsHash) public \n    {\n        Offer storage offer = offers[listingID][offerID];\n        require(offer.seller == msg.sender, \"The listing must belong to the sender.\");\n        require(offer.status == 1, \"status != created\");\n        if (offer.finalizes < 1000000000) { // Relative finalization window\n            offer.finalizes = now + offer.finalizes;\n        }\n        offer.status = 2; // Set offer to 'Accepted'\n        emit OfferAccepted(msg.sender, listingID, offerID, _ipfsHash);\n    }\n\n    // @dev Buyer withdraws offer. IPFS hash contains reason for withdrawl.\n    function withdrawOffer(uint listingID, uint offerID, bytes32 _ipfsHash) public {\n        Offer storage offer = offers[listingID][offerID];\n        require(\n            msg.sender == offer.buyer,\n            \"Restricted to buyer\"\n        );\n        require(offer.status == 1, \"status != created\");\n        refundBuyer(listingID, offerID);\n        if (offer.commission > 0)\n        {\n            refundCommission(listingID, offerID);\n        }\n        emit OfferWithdrawn(msg.sender, listingID, offerID, _ipfsHash);\n        delete offers[listingID][offerID];\n    }\n\n    // @dev Buyer adds extra funds to an accepted offer.\n    function addFunds(uint listingID, uint offerID, bytes32 _ipfsHash, uint _value) public payable {\n        Offer storage offer = offers[listingID][offerID];\n        require(msg.sender == offer.buyer, \"Buyer must call\");\n        require(offer.status == 2, \"status != accepted\");\n        if (address(offer.currency) == 0x0) { // Listing is in ETH\n            require(\n                msg.value == _value,\n                \"sent != offered value\"\n            );\n        } else { // Listing is in ERC20\n            require(msg.value == 0, \"ETH must not be sent\");\n            require(\n                offer.currency.transferFrom(msg.sender, this, _value),\n                \"transferFrom failed\"\n            );\n        }\n        offer.value += _value;\n        emit OfferFundsAdded(msg.sender, listingID, offerID, _ipfsHash);\n    }\n\n    // @dev verifier finalize transaction to receive commission\n    function _verifiedFinalize(uint listingID, uint offerID, bytes32 _ipfsHash, uint _behalfFee, uint _verifyFee, uint payOut, uint8 v, bytes32 r, bytes32 s) internal \n    {\n\n        Offer storage offer = offers[listingID][offerID];\n        // Verifier will not take into account behalfFee\n        require(ecrecover(hashFinalize(listingID, offerID, _ipfsHash, payOut, _verifyFee), v, r, s) == offer.verifier, \"The finalize signature does not match the verifier\");\n\n        require(offer.status == 2, \"status != accepted\");\n        require((offer.value - offer.refund) >= payOut, \"Offer cannot make payout\");\n        require(payOut > (_behalfFee + _verifyFee), \"Cannot pay off fees\");\n        uint actualPayOut = payOut;\n        if (_behalfFee > 0) {\n            offer.value -= _behalfFee;\n            actualPayOut -= _behalfFee;\n            payFee(offer.currency, msg.sender, _behalfFee);\n        }\n        if (_verifyFee > 0) {\n            offer.value -= _verifyFee;\n            actualPayOut -= _verifyFee;\n            payFee(offer.currency, offer.verifier, _verifyFee);\n        }\n        offer.refund = offer.value - actualPayOut;\n        paySeller(listingID, offerID); // Pay seller\n        payCommission(listingID, offerID);\n        emit OfferFinalized(offer.verifier, listingID, offerID, _ipfsHash);\n        delete offers[listingID][offerID];\n    }\n\n    function verifiedFinalize(uint listingID, uint offerID, bytes32 _ipfsHash, uint verifyFee, uint payOut, uint8 v, bytes32 r, bytes32 s) public \n    {\n        require(offers[listingID][offerID].seller == msg.sender, \"Only the seller can verify finalize this transaction.\");\n        _verifiedFinalize(listingID, offerID, _ipfsHash, 0, verifyFee, payOut, v, r, s);\n    }\n\n    function verifiedOnBehalfFinalize(uint listingID, uint offerID, bytes32 _ipfsHash, uint behalfFee, uint verifyFee, uint payOut, uint8 v_seller, bytes32 r_seller, bytes32 s_seller, uint8 v, bytes32 r, bytes32 s) public \n    {\n        require(payOut > behalfFee, \"Payout must be more than the behalf fee\");\n        require(ecrecover(hashFinalize(listingID, offerID, _ipfsHash, payOut, behalfFee), v_seller, r_seller, s_seller) == offers[listingID][offerID].seller, \"The behalf finalize signature does not match the seller\");\n        _verifiedFinalize(listingID, offerID, _ipfsHash, behalfFee, verifyFee, payOut, v, r, s);\n    }\n\n    // @dev Buyer must finalize transaction to receive commission\n    function finalize(uint listingID, uint offerID, bytes32 _ipfsHash) public {\n        Offer storage offer = offers[listingID][offerID];\n        if (now <= offer.finalizes) { // Only buyer can finalize before finalization window\n            require(\n                msg.sender == offer.buyer,\n                \"Only buyer can finalize\"\n            );\n        } else { // Allow both seller and buyer to finalize if finalization window has passed\n            require(\n                msg.sender == offer.buyer || msg.sender == offer.seller,\n                \"Seller or buyer must finalize\"\n            );\n        }\n        require(offer.status == 2, \"status != accepted\");\n        paySeller(listingID, offerID); // Pay seller\n        payCommission(listingID, offerID);\n        emit OfferFinalized(msg.sender, listingID, offerID, _ipfsHash);\n        delete offers[listingID][offerID];\n    }\n\n    // @dev Buyer or seller can dispute transaction during finalization window\n    function dispute(uint listingID, uint offerID, bytes32 _ipfsHash) public {\n        Offer storage offer = offers[listingID][offerID];\n        require(\n            msg.sender == offer.buyer || msg.sender == offer.seller,\n            \"Must be seller or buyer\"\n        );\n        require(offer.status == 2, \"status != accepted\");\n        require(now <= offer.finalizes, \"Already finalized\");\n        offer.status = 3; // Set status to \"Disputed\"\n        emit OfferDisputed(msg.sender, listingID, offerID, _ipfsHash);\n    }\n\n    // @dev Called by arbitrator\n    function executeRuling(\n        uint listingID,\n        uint offerID,\n        bytes32 _ipfsHash,\n        uint _ruling, // 0: Seller, 1: Buyer, 2: Com + Seller, 3: Com + Buyer\n        uint _refund\n    ) public {\n        Offer storage offer = offers[listingID][offerID];\n        require(msg.sender == offer.arbitrator, \"Must be arbitrator\");\n        require(offer.status == 3, \"status != disputed\");\n        require(_refund <= offer.value, \"refund too high\");\n        offer.refund = _refund;\n        if (_ruling & 1 == 1) {\n            refundBuyer(listingID, offerID);\n        } else  {\n            paySeller(listingID, offerID);\n        }\n        if (_ruling & 2 == 2) {\n            payCommission(listingID, offerID);\n        } else  { // Refund commission to seller\n            refundCommission(listingID, offerID);\n        }\n        emit OfferRuling(offer.arbitrator, listingID, offerID, _ipfsHash, _ruling);\n        delete offers[listingID][offerID];\n    }\n\n    // @dev Sets the amount that a seller wants to refund to a buyer.\n    function updateRefund(uint listingID, uint offerID, uint _refund, bytes32 _ipfsHash) public {\n        Offer storage offer = offers[listingID][offerID];\n        require(msg.sender == offer.seller, \"Seller must call\");\n        require(offer.status == 2, \"status != accepted\");\n        require(_refund <= offer.value, \"Excessive refund\");\n        offer.refund = _refund;\n        emit OfferData(msg.sender, listingID, offerID, _ipfsHash);\n    }\n\n    // @dev Refunds buyer in ETH or ERC20 - used by 1) executeRuling() and 2) to allow a seller to refund a purchase\n    function refundBuyer(uint listingID, uint offerID) private {\n        Offer storage offer = offers[listingID][offerID];\n        if (address(offer.currency) == 0x0) {\n            require(offer.buyer.send(offer.value), \"ETH refund failed\");\n        } else {\n            require(\n                offer.currency.transfer(offer.buyer, offer.value),\n                \"Refund failed\"\n            );\n        }\n    }\n\n    // @dev Pay seller in ETH or ERC20\n    function paySeller(uint listingID, uint offerID) private {\n        Offer storage offer = offers[listingID][offerID];\n        uint value = offer.value - offer.refund;\n\n        if (address(offer.currency) == 0x0) {\n            require(offer.buyer.send(offer.refund), \"ETH refund failed\");\n            require(offer.seller.send(value), \"ETH send failed\");\n        } else {\n            require(\n                offer.currency.transfer(offer.buyer, offer.refund),\n                \"Refund failed\"\n            );\n            require(\n                offer.currency.transfer(offer.seller, value),\n                \"Transfer failed\"\n            );\n        }\n    }\n\n\n    // @dev Associate ipfs data with the marketplace\n    function addData(bytes32 ipfsHash) public {\n        emit MarketplaceData(msg.sender, ipfsHash);\n    }\n\n    // @dev Associate ipfs data with a listing\n    function addData(uint listingID, bytes32 ipfsHash) public {\n        emit ListingData(msg.sender, listingID, ipfsHash);\n    }\n\n    // @dev Associate ipfs data with an offer\n    function addData(uint listingID, uint offerID, bytes32 ipfsHash) public {\n        emit OfferData(msg.sender, listingID, offerID, ipfsHash);\n    }\n\n    // @dev Set the address of the Origin token contract\n    function setTokenAddr(address _tokenAddr) public onlyOwner {\n        tokenAddr = ERC20(_tokenAddr);\n    }\n\n    // @dev Add affiliate to whitelist. Set to address(this) to disable.\n    function addAffiliate(address _affiliate, bytes32 ipfsHash) public onlyOwner {\n        allowedAffiliates[_affiliate] = true;\n        emit AffiliateAdded(_affiliate, ipfsHash);\n    }\n\n    // @dev Remove affiliate from whitelist.\n    function removeAffiliate(address _affiliate, bytes32 ipfsHash) public onlyOwner {\n        delete allowedAffiliates[_affiliate];\n        emit AffiliateRemoved(_affiliate, ipfsHash);\n    }\n\n    function createListings(address[] sellers, uint[] listingIds, bytes32[] ipfsHashes)\n    public\n    {\n        bool affiliateWhitelistDisabled = allowedAffiliates[address(this)];\n        require(\n            affiliateWhitelistDisabled || allowedAffiliates[msg.sender],\n            \"Affiliate not allowed\"\n        );\n        require(sellers.length == listingIds.length, \"Listings length and sellers length does not match\");\n        require(sellers.length == ipfsHashes.length, \"Hashes length and sellers length does not match\");\n\n        for (uint i = 0; i < sellers.length; i++) {\n            emit ListingCreated(sellers[i], listingIds[i], ipfsHashes[i]);\n        }\n    }\n\n    function updateListings(address[] sellers, uint[] listingIds, bytes32[] ipfsHashes)\n    public\n    {\n        bool affiliateWhitelistDisabled = allowedAffiliates[address(this)];\n        require(\n            affiliateWhitelistDisabled || allowedAffiliates[msg.sender],\n            \"Affiliate not allowed\"\n        );\n        require(sellers.length == listingIds.length, \"Listings length and sellers length does not match\");\n        require(sellers.length == ipfsHashes.length, \"Hashes length and sellers length does not match\");\n\n        for (uint i = 0; i < sellers.length; i++) {\n            emit ListingUpdated(sellers[i], listingIds[i], ipfsHashes[i]);\n        }\n    }\n\n    function withdrawListings(address[] sellers, uint[] listingIds, bytes32[] ipfsHashes)\n    public\n    {\n        bool affiliateWhitelistDisabled = allowedAffiliates[address(this)];\n        require(\n            affiliateWhitelistDisabled || allowedAffiliates[msg.sender],\n            \"Affiliate not allowed\"\n        );\n        require(sellers.length == listingIds.length, \"Listings length and sellers length does not match\");\n        require(sellers.length == ipfsHashes.length, \"Hashes length and sellers length does not match\");\n\n        for (uint i = 0; i < sellers.length; i++) {\n            emit ListingWithdrawn(sellers[i], listingIds[i], ipfsHashes[i]);\n        }\n    }\n\n    // @dev Pay commission to affiliate\n    function payCommission(uint listingID, uint offerID) private {\n        Offer storage offer = offers[listingID][offerID];\n        if (offer.affiliate != 0x0) {\n            require(\n                tokenAddr.transfer(offer.affiliate, offer.commission),\n                \"Commission transfer failed\"\n            );\n        }\n    }\n\n    function refundCommission(uint listingID, uint offerID) private {\n        Offer storage offer = offers[listingID][offerID];\n        require(\n            tokenAddr.transfer(offer.buyer, offer.commission),\n            \"Commission refund failed\"\n        );\n    }\n\n    function payFee(ERC20 currency, address provider, uint fee) private {\n      if (address(currency) == 0x0) {\n        require(provider.send(fee), \"Cannot send fee to sender\");\n      } else {\n        require(\n          currency.transfer(provider, fee),\n          \"Send fee failed\"\n        );\n      }\n    }\n}\n",
  "sourcePath": "/Users/franck/src/ethcam/origin/packages/contracts/contracts/marketplace/vB/Marketplace.sol",
  "compiler": {
    "name": "solc",
    "version": "0.4.25+commit.59dbf8f1.Emscripten.clang"
  },
  "schemaVersion": "2.0.2",
  "updatedAt": "2019-05-17T21:07:57.204Z"
}